{"abi":[{"type":"constructor","inputs":[{"name":"_reputationNFT","type":"address","internalType":"address"}],"stateMutability":"nonpayable"},{"type":"function","name":"USDC","inputs":[],"outputs":[{"name":"","type":"address","internalType":"address"}],"stateMutability":"view"},{"type":"function","name":"createArena","inputs":[{"name":"topic","type":"string","internalType":"string"},{"name":"prizePool","type":"uint256","internalType":"uint256"},{"name":"submissionDeadline","type":"uint256","internalType":"uint256"},{"name":"votingDeadline","type":"uint256","internalType":"uint256"}],"outputs":[{"name":"arena","type":"address","internalType":"address"}],"stateMutability":"nonpayable"},{"type":"function","name":"getArenaCount","inputs":[],"outputs":[{"name":"","type":"uint256","internalType":"uint256"}],"stateMutability":"view"},{"type":"function","name":"getArenas","inputs":[],"outputs":[{"name":"","type":"address[]","internalType":"address[]"}],"stateMutability":"view"},{"type":"function","name":"getArenasByCreator","inputs":[{"name":"creator","type":"address","internalType":"address"}],"outputs":[{"name":"","type":"address[]","internalType":"address[]"}],"stateMutability":"view"},{"type":"function","name":"reputationNFT","inputs":[],"outputs":[{"name":"","type":"address","internalType":"address"}],"stateMutability":"view"},{"type":"event","name":"ArenaCreated","inputs":[{"name":"arena","type":"address","indexed":true,"internalType":"address"},{"name":"creator","type":"address","indexed":true,"internalType":"address"},{"name":"topic","type":"string","indexed":false,"internalType":"string"},{"name":"prizePool","type":"uint256","indexed":false,"internalType":"uint256"},{"name":"submissionDeadline","type":"uint256","indexed":false,"internalType":"uint256"},{"name":"votingDeadline","type":"uint256","indexed":false,"internalType":"uint256"}],"anonymous":false},{"type":"error","name":"SafeERC20FailedOperation","inputs":[{"name":"token","type":"address","internalType":"address"}]}],"bytecode":{"object":"0x60a060405234801561000f575f5ffd5b50604051612be0380380612be083398101604081905261002e91610099565b6001600160a01b0381166100885760405162461bcd60e51b815260206004820152601960248201527f4172656e61466163746f72793a207a65726f207265704e465400000000000000604482015260640160405180910390fd5b6001600160a01b03166080526100c6565b5f602082840312156100a9575f5ffd5b81516001600160a01b03811681146100bf575f5ffd5b9392505050565b608051612af56100eb5f395f818160e00152818161030401526103930152612af55ff3fe608060405234801561000f575f5ffd5b5060043610610060575f3560e01c806319b7b42e14610064578063335a5502146100825780635e56e7bb146100955780636269654e146100c057806389a30271146100d0578063fa488649146100db575b5f5ffd5b61006c610102565b60405161007991906105f8565b60405180910390f35b61006c610090366004610643565b610161565b6100a86100a3366004610670565b6101d4565b6040516001600160a01b039091168152602001610079565b5f54604051908152602001610079565b6100a8601b60991b81565b6100a87f000000000000000000000000000000000000000000000000000000000000000081565b60605f80548060200260200160405190810160405280929190818152602001828054801561015757602002820191905f5260205f20905b81546001600160a01b03168152600190910190602001808311610139575b5050505050905090565b6001600160a01b0381165f908152600160209081526040918290208054835181840281018401909452808452606093928301828280156101c857602002820191905f5260205f20905b81546001600160a01b031681526001909101906020018083116101aa575b50505050509050919050565b5f846102275760405162461bcd60e51b815260206004820152601960248201527f4172656e61466163746f72793a20656d70747920746f7069630000000000000060448201526064015b60405180910390fd5b4283116102885760405162461bcd60e51b815260206004820152602960248201527f4172656e61466163746f72793a207375626d697373696f6e20646561646c696e60448201526819481a5b881c185cdd60ba1b606482015260840161021e565b8282116102e65760405162461bcd60e51b815260206004820152602660248201527f4172656e61466163746f72793a20766f74696e67206265666f7265207375626d60448201526534b9b9b4b7b760d11b606482015260840161021e565b83156102fc576102fc601b60991b3330876104a6565b33601b60991b7f000000000000000000000000000000000000000000000000000000000000000088888787604051610333906105eb565b610343979695949392919061071a565b604051809103905ff08015801561035c573d5f5f3e3d5ffd5b509050831561037457610374601b60991b82866104e2565b604051635a7bc6a560e01b81526001600160a01b0382811660048301527f00000000000000000000000000000000000000000000000000000000000000001690635a7bc6a5906024015f604051808303815f87803b1580156103d4575f5ffd5b505af11580156103e6573d5f5f3e3d5ffd5b50505f8054600181810183557f290decd9548b62a8d60345a988386fc84ba6bc95484008f6362f93160ef3e56390910180546001600160a01b0387166001600160a01b031991821681179092553380855260208481526040808720805496870181558752952090930180549091168217905591519093509091507f27ebf67bb917e82c0ecf3e23417f7c65dfe74fdc345cd375dd0153ade396bc8890610495908a908a908a908a908a90610764565b60405180910390a395945050505050565b6104b484848484600161051c565b6104dc57604051635274afe760e01b81526001600160a01b038516600482015260240161021e565b50505050565b6104ef8383836001610589565b61051757604051635274afe760e01b81526001600160a01b038416600482015260240161021e565b505050565b6040516323b872dd60e01b5f8181526001600160a01b038781166004528616602452604485905291602083606481808c5af1925060015f5114831661057857838315161561056c573d5f823e3d81fd5b5f883b113d1516831692505b604052505f60605295945050505050565b60405163a9059cbb60e01b5f8181526001600160a01b038616600452602485905291602083604481808b5af1925060015f511483166105df5783831516156105d3573d5f823e3d81fd5b5f873b113d1516831692505b60405250949350505050565b61232b8061079583390190565b602080825282518282018190525f918401906040840190835b818110156106385783516001600160a01b0316835260209384019390920191600101610611565b509095945050505050565b5f60208284031215610653575f5ffd5b81356001600160a01b0381168114610669575f5ffd5b9392505050565b5f5f5f5f5f60808688031215610684575f5ffd5b853567ffffffffffffffff81111561069a575f5ffd5b8601601f810188136106aa575f5ffd5b803567ffffffffffffffff8111156106c0575f5ffd5b8860208284010111156106d1575f5ffd5b60209182019990985090870135966040810135965060600135945092505050565b81835281816020850137505f828201602090810191909152601f909101601f19169091010190565b6001600160a01b03888116825287811660208301528616604082015260c0606082018190525f9061074e90830186886106f2565b60808301949094525060a0015295945050505050565b608081525f6107776080830187896106f2565b60208301959095525060408101929092526060909101529291505056fe610100604052348015610010575f5ffd5b5060405161232b38038061232b83398101604081905261002f916101af565b6001600160a01b03861661008a5760405162461bcd60e51b815260206004820152601360248201527f4172656e613a207a65726f2063726561746f720000000000000000000000000060448201526064015b60405180910390fd5b4282116100e45760405162461bcd60e51b815260206004820152602260248201527f4172656e613a207375626d697373696f6e20646561646c696e6520696e2070616044820152611cdd60f21b6064820152608401610081565b8181116101445760405162461bcd60e51b815260206004820152602860248201527f4172656e613a20766f74696e6720646561646c696e65206265666f72652073756044820152673136b4b9b9b4b7b760c11b6064820152608401610081565b336080526001600160a01b0386811660a05285811660c052841660e0525f61016c8482610328565b50600191909155600255506103e292505050565b80516001600160a01b0381168114610196575f5ffd5b919050565b634e487b7160e01b5f52604160045260245ffd5b5f5f5f5f5f5f60c087890312156101c4575f5ffd5b6101cd87610180565b95506101db60208801610180565b94506101e960408801610180565b60608801519094506001600160401b03811115610204575f5ffd5b8701601f81018913610214575f5ffd5b80516001600160401b0381111561022d5761022d61019b565b604051601f8201601f19908116603f011681016001600160401b038111828210171561025b5761025b61019b565b6040528181528282016020018b1015610272575f5ffd5b8160208401602083015e5f91810160200191909152608089015160a090990151979a9699509497949694959350505050565b600181811c908216806102b857607f821691505b6020821081036102d657634e487b7160e01b5f52602260045260245ffd5b50919050565b601f82111561032357805f5260205f20601f840160051c810160208510156103015750805b601f840160051c820191505b81811015610320575f815560010161030d565b50505b505050565b81516001600160401b038111156103415761034161019b565b6103558161034f84546102a4565b846102dc565b6020601f821160018114610387575f83156103705750848201515b5f19600385901b1c1916600184901b178455610320565b5f84815260208120601f198516915b828110156103b65787850151825560209485019460019092019101610396565b50848210156103d357868401515f19600387901b60f8161c191681555b50505050600190811b01905550565b60805160a05160c05160e051611ed76104545f395f818161036701528181610d3101528181610e370152610f3e01525f8181610290015281816105d9015281816107100152818161139c015261179a01525f81816101c4015281816109b70152610ff101525f6103a30152611ed75ff3fe608060405234801561000f575f5ffd5b50600436106101bb575f3560e01c80639999d2ae116100f3578063c45a015511610093578063ea7853fa1161006e578063ea7853fa146103ed578063eced0280146103f5578063f308cfca1461040a578063f9c5511514610429575f5ffd5b8063c45a01551461039e578063d99a8dc3146103c5578063df15c37e146103d8575f5ffd5b8063ad84c2da116100ce578063ad84c2da14610336578063b3f05b9714610355578063b6df75d114610362578063bf63a57714610389575f5ffd5b80639999d2ae14610312578063a2f628e41461031a578063a2fb117514610323575f5ffd5b80633e8686cc1161015e57806354f6aa201161013957806354f6aa20146102e25780637d48536d146102f75780638876ce19146103015780638e7896831461030a575f5ffd5b80633e8686cc146102b2578063403c9fa8146102d25780634bb278f3146102da575f5ffd5b80632410847511610199578063241084751461024c578063388044b3146102615780633ccfd60b146102835780633e413bee1461028b575f5ffd5b806302d05d3f146101bf578063036ee8501461020357806305d353531461021a575b5f5ffd5b6101e67f000000000000000000000000000000000000000000000000000000000000000081565b6040516001600160a01b0390911681526020015b60405180910390f35b61020c60025481565b6040519081526020016101fa565b61023c61022836600461194a565b60086020525f908152604090205460ff1681565b60405190151581526020016101fa565b61025f61025a3660046119bc565b610432565b005b61023c61026f36600461194a565b600a6020525f908152604090205460ff1681565b61025f61069f565b6101e67f000000000000000000000000000000000000000000000000000000000000000081565b6102c56102c0366004611a04565b610777565b6040516101fa9190611a8f565b61020c6108da565b61025f6108e8565b6102ea611088565b6040516101fa9190611aa1565b61020c620186a081565b61020c61c35081565b61020c606481565b60075461020c565b61020c61011881565b61020c610331366004611a04565b61119f565b61020c61034436600461194a565b60096020525f908152604090205481565b60035461023c9060ff1681565b6101e67f000000000000000000000000000000000000000000000000000000000000000081565b6103916111b5565b6040516101fa9190611b04565b6101e67f000000000000000000000000000000000000000000000000000000000000000081565b61025f6103d3366004611b16565b611240565b6103e06114d4565b6040516101fa9190611b55565b61025f61150f565b6103fd6116e7565b6040516101fa9190611b85565b61020c61041836600461194a565b600b6020525f908152604090205481565b61020c60015481565b6001544210156104895760405162461bcd60e51b815260206004820152601960248201527f4172656e613a20766f74696e67206e6f7420737461727465640000000000000060448201526064015b60405180910390fd5b60025442106104da5760405162461bcd60e51b815260206004820152601960248201527f4172656e613a20766f74696e6720706861736520656e646564000000000000006044820152606401610480565b335f9081526008602052604090205460ff16156105305760405162461bcd60e51b8152602060048201526014602482015273105c995b984e88185b1c9958591e481d9bdd195960621b6044820152606401610480565b60075483106105815760405162461bcd60e51b815260206004820152601960248201527f4172656e613a20696e76616c6964207375626d697373696f6e000000000000006044820152606401610480565b6101188111156105cc5760405162461bcd60e51b81526020600482015260166024820152754172656e613a20726561736f6e20746f6f206c6f6e6760501b6044820152606401610480565b6106036001600160a01b037f000000000000000000000000000000000000000000000000000000000000000016333061c35061170d565b6007838154811061061657610616611bab565b5f9182526020822060026004909202010180549161063383611bd3565b9091555050335f818152600860209081526040808320805460ff191660011790556009909152908190208590555184907f909b43dcc56d91024768bbc5c8d56441234580b2fd6176844960cbc7218cc0b5906106929086908690611beb565b60405180910390a3505050565b335f908152600b6020526040902054806106fb5760405162461bcd60e51b815260206004820152601a60248201527f4172656e613a206e6f7468696e6720746f2077697468647261770000000000006044820152606401610480565b335f818152600b602052604081205561073f907f00000000000000000000000000000000000000000000000000000000000000006001600160a01b03169083611749565b60405181815233907f7084f5476618d8e60b11ef0d7d3f06914655adb8793e28ff7f018d4c76d505d59060200160405180910390a250565b6107a860405180608001604052805f6001600160a01b03168152602001606081526020015f81526020015f81525090565b60075482106107ed5760405162461bcd60e51b8152602060048201526011602482015270105c995b984e881a5b9d985b1a59081a59607a1b6044820152606401610480565b6007828154811061080057610800611bab565b5f918252602091829020604080516080810190915260049092020180546001600160a01b03168252600181018054929391929184019161083f90611c19565b80601f016020809104026020016040519081016040528092919081815260200182805461086b90611c19565b80156108b65780601f1061088d576101008083540402835291602001916108b6565b820191905f5260205f20905b81548152906001019060200180831161089957829003601f168201915b50505050508152602001600282015481526020016003820154815250509050919050565b5f6108e3611783565b905090565b60025442101561093a5760405162461bcd60e51b815260206004820152601760248201527f4172656e613a20766f74696e67206e6f7420656e6465640000000000000000006044820152606401610480565b60035460ff161561098d5760405162461bcd60e51b815260206004820152601860248201527f4172656e613a20616c72656164792066696e616c697a656400000000000000006044820152606401610480565b6003805460ff191660011790556007545f819003610a3b576109ad611783565b6001600160a01b037f0000000000000000000000000000000000000000000000000000000000000000165f908152600b6020526040812080549091906109f4908490611c51565b9091555050604080515f808252602082018190528183015290517f069cb9cf3066619f9a83be465993a22843ea7baba731ac97ac208899985dc0079181900360600190a150565b610a436118da565b610a4b6118da565b5f5b83811015610bcb575f60078281548110610a6957610a69611bab565b5f91825260209091206002600490920201015484519091501580610a8d5750825181115b80610aaf5750825181148015610aaf57508351610aac90600190611c6a565b82105b15610af357602080850180516040808801919091529185018051928601929092528551905283519052610ae3826001611c51565b845280835f5b6020020152610bc2565b60208401511580610b075750602083015181115b80610b2f5750602083015181148015610b2f57506020840151610b2c90600190611c6a565b82105b15610b64576020808501516040808701919091529084015190840152610b56826001611c51565b602085015280836001610ae9565b60408401511580610b785750604083015181115b80610ba05750604083015181148015610ba057506040840151610b9d90600190611c6a565b82105b15610bc257610bb0826001611c51565b84600260200201528083600260200201525b50600101610a4d565b50610bd960048360036118f8565b505f610be3611783565b90505f80808581602002015115610c1057612710610c0361177086611c7d565b610c0d9190611c94565b92505b602086015115610c3a57612710610c29610bb886611c7d565b610c339190611c94565b9150610c60565b612710610c49610bb886611c7d565b610c539190611c94565b610c5d9084611c51565b92505b604086015115610c8a57612710610c796103e886611c7d565b610c839190611c94565b9050610cb0565b612710610c996103e886611c7d565b610ca39190611c94565b610cad9084611c51565b92505b855115610db05785515f90600790610cca90600190611c6a565b81548110610cda57610cda611bab565b5f91825260208083206004909202909101546001600160a01b0316808352600b90915260408220805491935086929091610d15908490611c51565b90915550506040516326ec6b7160e01b81526001600160a01b037f000000000000000000000000000000000000000000000000000000000000000016906326ec6b7190610d6d90849030905f90600190600401611d31565b6020604051808303815f875af1158015610d89573d5f5f3e3d5ffd5b505050506040513d601f19601f82011682018060405250810190610dad9190611d70565b50505b602086015115610eb6575f6007600188816020020151610dd09190611c6a565b81548110610de057610de0611bab565b5f91825260208083206004909202909101546001600160a01b0316808352600b90915260408220805491935085929091610e1b908490611c51565b90915550506040516326ec6b7160e01b81526001600160a01b037f000000000000000000000000000000000000000000000000000000000000000016906326ec6b7190610e7390849030905f90600290600401611d31565b6020604051808303815f875af1158015610e8f573d5f5f3e3d5ffd5b505050506040513d601f19601f82011682018060405250810190610eb39190611d70565b50505b604086015115610fbd575f600760018860026020020151610ed79190611c6a565b81548110610ee757610ee7611bab565b5f91825260208083206004909202909101546001600160a01b0316808352600b90915260408220805491935084929091610f22908490611c51565b90915550506040516326ec6b7160e01b81526001600160a01b037f000000000000000000000000000000000000000000000000000000000000000016906326ec6b7190610f7a90849030905f90600390600401611d31565b6020604051808303815f875af1158015610f96573d5f5f3e3d5ffd5b505050506040513d601f19601f82011682018060405250810190610fba9190611d70565b50505b5f81610fc98486611c51565b610fd39190611c51565b90508085111561103457610fe78186611c6a565b6001600160a01b037f0000000000000000000000000000000000000000000000000000000000000000165f908152600b60205260408120805490919061102e908490611c51565b90915550505b86516020808901516040808b01518151948552928401919091528201527f069cb9cf3066619f9a83be465993a22843ea7baba731ac97ac208899985dc0079060600160405180910390a15050505050505050565b60606007805480602002602001604051908101604052809291908181526020015f905b82821015611196575f84815260209081902060408051608081019091526004850290910180546001600160a01b0316825260018101805492939192918401916110f390611c19565b80601f016020809104026020016040519081016040528092919081815260200182805461111f90611c19565b801561116a5780601f106111415761010080835404028352916020019161116a565b820191905f5260205f20905b81548152906001019060200180831161114d57829003601f168201915b5050505050815260200160028201548152602001600382015481525050815260200190600101906110ab565b50505050905090565b600481600381106111ae575f80fd5b0154905081565b5f80546111c190611c19565b80601f01602080910402602001604051908101604052809291908181526020018280546111ed90611c19565b80156112385780601f1061120f57610100808354040283529160200191611238565b820191905f5260205f20905b81548152906001019060200180831161121b57829003601f168201915b505050505081565b60015442106112915760405162461bcd60e51b815260206004820152601d60248201527f4172656e613a207375626d697373696f6e20706861736520656e6465640000006044820152606401610480565b335f908152600a602052604090205460ff16156112f05760405162461bcd60e51b815260206004820152601860248201527f4172656e613a20616c7265616479207375626d697474656400000000000000006044820152606401610480565b6007546064116113425760405162461bcd60e51b815260206004820152601d60248201527f4172656e613a207375626d697373696f6e2063617020726561636865640000006044820152606401610480565b8061138f5760405162461bcd60e51b815260206004820152601860248201527f4172656e613a20656d70747920636f6e74656e742072656600000000000000006044820152606401610480565b6113c76001600160a01b037f0000000000000000000000000000000000000000000000000000000000000000163330620186a061170d565b600780546040805160808101825233815281516020601f87018190048102820181019093528581529293929091808301919087908790819084018382808284375f92018290525093855250505060208083018290524260409093019290925283546001808201865594825290829020835160049092020180546001600160a01b0319166001600160a01b039092169190911781559082015191929091908201906114719082611de6565b506040828101516002830155606090920151600390910155335f818152600a602052829020805460ff19166001179055905182907f72075524713934864c8a8ff2740c94cd50c441bf186d8ffd9b908ca8dbb4776d906106929087908790611beb565b6114dc6118da565b6040805160608101918290529060049060039082845b8154815260200190600101908083116114f2575050505050905090565b60035460ff166115585760405162461bcd60e51b8152602060048201526014602482015273105c995b984e881b9bdd08199a5b985b1a5e995960621b6044820152606401610480565b335f9081526008602052604090205460ff166115ac5760405162461bcd60e51b81526020600482015260136024820152724172656e613a20646964206e6f7420766f746560681b6044820152606401610480565b335f9081526009602052604090205460010161160a5760405162461bcd60e51b815260206004820152601d60248201527f4172656e613a2072656261746520616c726561647920636c61696d65640000006044820152606401610480565b6004545f0361164e5760405162461bcd60e51b815260206004820152601060248201526f20b932b7309d103737903bb4b73732b960811b6044820152606401610480565b60045461165d90600190611c6a565b335f90815260096020526040902054146116b25760405162461bcd60e51b815260206004820152601660248201527520b932b7309d103b37ba32b2103337b9103637b9b2b960511b6044820152606401610480565b335f9081526009602090815260408083205f199055600b9091528120805461c35092906116e0908490611c51565b9091555050565b5f6001544210156116f757505f90565b6002544210156117075750600190565b50600290565b61171b84848484600161180b565b61174357604051635274afe760e01b81526001600160a01b0385166004820152602401610480565b50505050565b6117568383836001611878565b61177e57604051635274afe760e01b81526001600160a01b0384166004820152602401610480565b505050565b6040516370a0823160e01b81523060048201525f907f00000000000000000000000000000000000000000000000000000000000000006001600160a01b0316906370a0823190602401602060405180830381865afa1580156117e7573d5f5f3e3d5ffd5b505050506040513d601f19601f820116820180604052508101906108e39190611d70565b6040516323b872dd60e01b5f8181526001600160a01b038781166004528616602452604485905291602083606481808c5af1925060015f5114831661186757838315161561185b573d5f823e3d81fd5b5f883b113d1516831692505b604052505f60605295945050505050565b60405163a9059cbb60e01b5f8181526001600160a01b038616600452602485905291602083604481808b5af1925060015f511483166118ce5783831516156118c2573d5f823e3d81fd5b5f873b113d1516831692505b60405250949350505050565b60405180606001604052806003906020820280368337509192915050565b8260038101928215611926579160200282015b8281111561192657825182559160200191906001019061190b565b50611932929150611936565b5090565b5b80821115611932575f8155600101611937565b5f6020828403121561195a575f5ffd5b81356001600160a01b0381168114611970575f5ffd5b9392505050565b5f5f83601f840112611987575f5ffd5b50813567ffffffffffffffff81111561199e575f5ffd5b6020830191508360208285010111156119b5575f5ffd5b9250929050565b5f5f5f604084860312156119ce575f5ffd5b83359250602084013567ffffffffffffffff8111156119eb575f5ffd5b6119f786828701611977565b9497909650939450505050565b5f60208284031215611a14575f5ffd5b5035919050565b5f81518084528060208401602086015e5f602082860101526020601f19601f83011685010191505092915050565b60018060a01b0381511682525f602082015160806020850152611a6f6080850182611a1b565b905060408301516040850152606083015160608501528091505092915050565b602081525f6119706020830184611a49565b5f602082016020835280845180835260408501915060408160051b8601019250602086015f5b82811015611af857603f19878603018452611ae3858351611a49565b94506020938401939190910190600101611ac7565b50929695505050505050565b602081525f6119706020830184611a1b565b5f5f60208385031215611b27575f5ffd5b823567ffffffffffffffff811115611b3d575f5ffd5b611b4985828601611977565b90969095509350505050565b6060810181835f5b6003811015611b7c578151835260209283019290910190600101611b5d565b50505092915050565b6020810160038310611ba557634e487b7160e01b5f52602160045260245ffd5b91905290565b634e487b7160e01b5f52603260045260245ffd5b634e487b7160e01b5f52601160045260245ffd5b5f60018201611be457611be4611bbf565b5060010190565b60208152816020820152818360408301375f818301604090810191909152601f909201601f19160101919050565b600181811c90821680611c2d57607f821691505b602082108103611c4b57634e487b7160e01b5f52602260045260245ffd5b50919050565b80820180821115611c6457611c64611bbf565b92915050565b81810381811115611c6457611c64611bbf565b8082028115828204841417611c6457611c64611bbf565b5f82611cae57634e487b7160e01b5f52601260045260245ffd5b500490565b5f8154611cbf81611c19565b808552600182168015611cd95760018114611cf557611b7c565b60ff1983166020870152602082151560051b8701019350611b7c565b845f5260205f205f5b83811015611d205781546020828a010152600182019150602081019050611cfe565b870160200194505050505092915050565b6001600160a01b038581168252841660208201526080604082018190525f90611d5c90830185611cb3565b905060ff8316606083015295945050505050565b5f60208284031215611d80575f5ffd5b5051919050565b634e487b7160e01b5f52604160045260245ffd5b601f82111561177e57805f5260205f20601f840160051c81016020851015611dc05750805b601f840160051c820191505b81811015611ddf575f8155600101611dcc565b5050505050565b815167ffffffffffffffff811115611e0057611e00611d87565b611e1481611e0e8454611c19565b84611d9b565b6020601f821160018114611e46575f8315611e2f5750848201515b5f19600385901b1c1916600184901b178455611ddf565b5f84815260208120601f198516915b82811015611e755787850151825560209485019460019092019101611e55565b5084821015611e9257868401515f19600387901b60f8161c191681555b50505050600190811b0190555056fea264697066735822122018edde3b1441e6e468e5c0982479ac1aa278b88b420ae403160b3ea582b74aae64736f6c634300081c0033a2646970667358221220e0c689eed5679f7e70ea4155fcba41d97e5fd68168e33bbae33120bb2df0f76664736f6c634300081c0033","linkReferences":{}},"methodIdentifiers":{"USDC()":"89a30271","createArena(string,uint256,uint256,uint256)":"5e56e7bb","getArenaCount()":"6269654e","getArenas()":"19b7b42e","getArenasByCreator(address)":"335a5502","reputationNFT()":"fa488649"},"id":44}