{"abi":[{"type":"constructor","inputs":[{"name":"_reputationNFT","type":"address","internalType":"address"}],"stateMutability":"nonpayable"},{"type":"function","name":"USDC","inputs":[],"outputs":[{"name":"","type":"address","internalType":"address"}],"stateMutability":"view"},{"type":"function","name":"createArena","inputs":[{"name":"topic","type":"string","internalType":"string"},{"name":"prizePool","type":"uint256","internalType":"uint256"},{"name":"submissionDeadline","type":"uint256","internalType":"uint256"},{"name":"votingDeadline","type":"uint256","internalType":"uint256"}],"outputs":[{"name":"arena","type":"address","internalType":"address"}],"stateMutability":"nonpayable"},{"type":"function","name":"getArenaCount","inputs":[],"outputs":[{"name":"","type":"uint256","internalType":"uint256"}],"stateMutability":"view"},{"type":"function","name":"getArenas","inputs":[],"outputs":[{"name":"","type":"address[]","internalType":"address[]"}],"stateMutability":"view"},{"type":"function","name":"getArenasByCreator","inputs":[{"name":"creator","type":"address","internalType":"address"}],"outputs":[{"name":"","type":"address[]","internalType":"address[]"}],"stateMutability":"view"},{"type":"function","name":"reputationNFT","inputs":[],"outputs":[{"name":"","type":"address","internalType":"address"}],"stateMutability":"view"},{"type":"event","name":"ArenaCreated","inputs":[{"name":"arena","type":"address","indexed":true,"internalType":"address"},{"name":"creator","type":"address","indexed":true,"internalType":"address"},{"name":"topic","type":"string","indexed":false,"internalType":"string"},{"name":"prizePool","type":"uint256","indexed":false,"internalType":"uint256"},{"name":"submissionDeadline","type":"uint256","indexed":false,"internalType":"uint256"},{"name":"votingDeadline","type":"uint256","indexed":false,"internalType":"uint256"}],"anonymous":false},{"type":"error","name":"SafeERC20FailedOperation","inputs":[{"name":"token","type":"address","internalType":"address"}]}],"bytecode":{"object":"0x60a060405234801561000f575f5ffd5b50604051612b0a380380612b0a83398101604081905261002e91610099565b6001600160a01b0381166100885760405162461bcd60e51b815260206004820152601960248201527f4172656e61466163746f72793a207a65726f207265704e465400000000000000604482015260640160405180910390fd5b6001600160a01b03166080526100c6565b5f602082840312156100a9575f5ffd5b81516001600160a01b03811681146100bf575f5ffd5b9392505050565b608051612a1f6100eb5f395f818160e00152818161030401526103930152612a1f5ff3fe608060405234801561000f575f5ffd5b5060043610610060575f3560e01c806319b7b42e14610064578063335a5502146100825780635e56e7bb146100955780636269654e146100c057806389a30271146100d0578063fa488649146100db575b5f5ffd5b61006c610102565b60405161007991906105f8565b60405180910390f35b61006c610090366004610643565b610161565b6100a86100a3366004610670565b6101d4565b6040516001600160a01b039091168152602001610079565b5f54604051908152602001610079565b6100a8601b60991b81565b6100a87f000000000000000000000000000000000000000000000000000000000000000081565b60605f80548060200260200160405190810160405280929190818152602001828054801561015757602002820191905f5260205f20905b81546001600160a01b03168152600190910190602001808311610139575b5050505050905090565b6001600160a01b0381165f908152600160209081526040918290208054835181840281018401909452808452606093928301828280156101c857602002820191905f5260205f20905b81546001600160a01b031681526001909101906020018083116101aa575b50505050509050919050565b5f846102275760405162461bcd60e51b815260206004820152601960248201527f4172656e61466163746f72793a20656d70747920746f7069630000000000000060448201526064015b60405180910390fd5b4283116102885760405162461bcd60e51b815260206004820152602960248201527f4172656e61466163746f72793a207375626d697373696f6e20646561646c696e60448201526819481a5b881c185cdd60ba1b606482015260840161021e565b8282116102e65760405162461bcd60e51b815260206004820152602660248201527f4172656e61466163746f72793a20766f74696e67206265666f7265207375626d60448201526534b9b9b4b7b760d11b606482015260840161021e565b83156102fc576102fc601b60991b3330876104a6565b33601b60991b7f000000000000000000000000000000000000000000000000000000000000000088888787604051610333906105eb565b610343979695949392919061071a565b604051809103905ff08015801561035c573d5f5f3e3d5ffd5b509050831561037457610374601b60991b82866104e2565b604051635a7bc6a560e01b81526001600160a01b0382811660048301527f00000000000000000000000000000000000000000000000000000000000000001690635a7bc6a5906024015f604051808303815f87803b1580156103d4575f5ffd5b505af11580156103e6573d5f5f3e3d5ffd5b50505f8054600181810183557f290decd9548b62a8d60345a988386fc84ba6bc95484008f6362f93160ef3e56390910180546001600160a01b0387166001600160a01b031991821681179092553380855260208481526040808720805496870181558752952090930180549091168217905591519093509091507f27ebf67bb917e82c0ecf3e23417f7c65dfe74fdc345cd375dd0153ade396bc8890610495908a908a908a908a908a90610764565b60405180910390a395945050505050565b6104b484848484600161051c565b6104dc57604051635274afe760e01b81526001600160a01b038516600482015260240161021e565b50505050565b6104ef8383836001610589565b61051757604051635274afe760e01b81526001600160a01b038416600482015260240161021e565b505050565b6040516323b872dd60e01b5f8181526001600160a01b038781166004528616602452604485905291602083606481808c5af1925060015f5114831661057857838315161561056c573d5f823e3d81fd5b5f883b113d1516831692505b604052505f60605295945050505050565b60405163a9059cbb60e01b5f8181526001600160a01b038616600452602485905291602083604481808b5af1925060015f511483166105df5783831516156105d3573d5f823e3d81fd5b5f873b113d1516831692505b60405250949350505050565b6122558061079583390190565b602080825282518282018190525f918401906040840190835b818110156106385783516001600160a01b0316835260209384019390920191600101610611565b509095945050505050565b5f60208284031215610653575f5ffd5b81356001600160a01b0381168114610669575f5ffd5b9392505050565b5f5f5f5f5f60808688031215610684575f5ffd5b853567ffffffffffffffff81111561069a575f5ffd5b8601601f810188136106aa575f5ffd5b803567ffffffffffffffff8111156106c0575f5ffd5b8860208284010111156106d1575f5ffd5b60209182019990985090870135966040810135965060600135945092505050565b81835281816020850137505f828201602090810191909152601f909101601f19169091010190565b6001600160a01b03888116825287811660208301528616604082015260c0606082018190525f9061074e90830186886106f2565b60808301949094525060a0015295945050505050565b608081525f6107776080830187896106f2565b60208301959095525060408101929092526060909101529291505056fe610100604052348015610010575f5ffd5b5060405161225538038061225583398101604081905261002f916101af565b6001600160a01b03861661008a5760405162461bcd60e51b815260206004820152601360248201527f4172656e613a207a65726f2063726561746f720000000000000000000000000060448201526064015b60405180910390fd5b4282116100e45760405162461bcd60e51b815260206004820152602260248201527f4172656e613a207375626d697373696f6e20646561646c696e6520696e2070616044820152611cdd60f21b6064820152608401610081565b8181116101445760405162461bcd60e51b815260206004820152602860248201527f4172656e613a20766f74696e6720646561646c696e65206265666f72652073756044820152673136b4b9b9b4b7b760c11b6064820152608401610081565b336080526001600160a01b0386811660a05285811660c052841660e0525f61016c8482610328565b50600191909155600255506103e292505050565b80516001600160a01b0381168114610196575f5ffd5b919050565b634e487b7160e01b5f52604160045260245ffd5b5f5f5f5f5f5f60c087890312156101c4575f5ffd5b6101cd87610180565b95506101db60208801610180565b94506101e960408801610180565b60608801519094506001600160401b03811115610204575f5ffd5b8701601f81018913610214575f5ffd5b80516001600160401b0381111561022d5761022d61019b565b604051601f8201601f19908116603f011681016001600160401b038111828210171561025b5761025b61019b565b6040528181528282016020018b1015610272575f5ffd5b8160208401602083015e5f91810160200191909152608089015160a090990151979a9699509497949694959350505050565b600181811c908216806102b857607f821691505b6020821081036102d657634e487b7160e01b5f52602260045260245ffd5b50919050565b601f82111561032357805f5260205f20601f840160051c810160208510156103015750805b601f840160051c820191505b81811015610320575f815560010161030d565b50505b505050565b81516001600160401b038111156103415761034161019b565b6103558161034f84546102a4565b846102dc565b6020601f821160018114610387575f83156103705750848201515b5f19600385901b1c1916600184901b178455610320565b5f84815260208120601f198516915b828110156103b65787850151825560209485019460019092019101610396565b50848210156103d357868401515f19600387901b60f8161c191681555b50505050600190811b01905550565b60805160a05160c05160e051611e016104545f395f818161034401528181610cac01528181610db20152610eb901525f81816102760152818161056b0152818161068b01528181611317015261172201525f81816101bf015281816109320152610f6c01525f6103800152611e015ff3fe608060405234801561000f575f5ffd5b50600436106101a1575f3560e01c80638e789683116100f3578063c45a015511610093578063ea7853fa1161006e578063ea7853fa146103ca578063eced0280146103d2578063f308cfca146103e7578063f9c5511514610406575f5ffd5b8063c45a01551461037b578063d99a8dc3146103a2578063df15c37e146103b5575f5ffd5b8063ad84c2da116100ce578063ad84c2da14610313578063b3f05b9714610332578063b6df75d11461033f578063bf63a57714610366575f5ffd5b80638e789683146102f05780639999d2ae146102f8578063a2fb117514610300575f5ffd5b80633e413bee1161015e5780634bb278f3116101395780634bb278f3146102c057806354f6aa20146102c85780637d48536d146102dd5780638876ce19146102e7575f5ffd5b80633e413bee146102715780633e8686cc14610298578063403c9fa8146102b8575f5ffd5b80630121b93f146101a557806302d05d3f146101ba578063036ee850146101fe57806305d3535314610215578063388044b3146102475780633ccfd60b14610269575b5f5ffd5b6101b86101b33660046118d2565b61040f565b005b6101e17f000000000000000000000000000000000000000000000000000000000000000081565b6040516001600160a01b0390911681526020015b60405180910390f35b61020760025481565b6040519081526020016101f5565b6102376102233660046118e9565b60086020525f908152604090205460ff1681565b60405190151581526020016101f5565b6102376102553660046118e9565b600a6020525f908152604090205460ff1681565b6101b861061a565b6101e17f000000000000000000000000000000000000000000000000000000000000000081565b6102ab6102a63660046118d2565b6106f2565b6040516101f5919061198a565b610207610855565b6101b8610863565b6102d0611003565b6040516101f5919061199c565b610207620186a081565b61020761c35081565b610207606481565b600754610207565b61020761030e3660046118d2565b61111a565b6102076103213660046118e9565b60096020525f908152604090205481565b6003546102379060ff1681565b6101e17f000000000000000000000000000000000000000000000000000000000000000081565b61036e611130565b6040516101f591906119ff565b6101e17f000000000000000000000000000000000000000000000000000000000000000081565b6101b86103b0366004611a11565b6111bb565b6103bd61145c565b6040516101f59190611a7f565b6101b8611497565b6103da61166f565b6040516101f59190611aaf565b6102076103f53660046118e9565b600b6020525f908152604090205481565b61020760015481565b6001544210156104665760405162461bcd60e51b815260206004820152601960248201527f4172656e613a20766f74696e67206e6f7420737461727465640000000000000060448201526064015b60405180910390fd5b60025442106104b75760405162461bcd60e51b815260206004820152601960248201527f4172656e613a20766f74696e6720706861736520656e64656400000000000000604482015260640161045d565b335f9081526008602052604090205460ff161561050d5760405162461bcd60e51b8152602060048201526014602482015273105c995b984e88185b1c9958591e481d9bdd195960621b604482015260640161045d565b600754811061055e5760405162461bcd60e51b815260206004820152601960248201527f4172656e613a20696e76616c6964207375626d697373696f6e00000000000000604482015260640161045d565b6105956001600160a01b037f000000000000000000000000000000000000000000000000000000000000000016333061c350611695565b600781815481106105a8576105a8611ad5565b5f918252602082206002600490920201018054916105c583611afd565b9091555050335f818152600860209081526040808320805460ff1916600117905560099091528082208490555183917f030b0f8dcd86a031eddb071f91882edeac8173663ba775713b677b42b51be44b91a350565b335f908152600b6020526040902054806106765760405162461bcd60e51b815260206004820152601a60248201527f4172656e613a206e6f7468696e6720746f207769746864726177000000000000604482015260640161045d565b335f818152600b60205260408120556106ba907f00000000000000000000000000000000000000000000000000000000000000006001600160a01b031690836116d1565b60405181815233907f7084f5476618d8e60b11ef0d7d3f06914655adb8793e28ff7f018d4c76d505d59060200160405180910390a250565b61072360405180608001604052805f6001600160a01b03168152602001606081526020015f81526020015f81525090565b60075482106107685760405162461bcd60e51b8152602060048201526011602482015270105c995b984e881a5b9d985b1a59081a59607a1b604482015260640161045d565b6007828154811061077b5761077b611ad5565b5f918252602091829020604080516080810190915260049092020180546001600160a01b0316825260018101805492939192918401916107ba90611b15565b80601f01602080910402602001604051908101604052809291908181526020018280546107e690611b15565b80156108315780601f1061080857610100808354040283529160200191610831565b820191905f5260205f20905b81548152906001019060200180831161081457829003601f168201915b50505050508152602001600282015481526020016003820154815250509050919050565b5f61085e61170b565b905090565b6002544210156108b55760405162461bcd60e51b815260206004820152601760248201527f4172656e613a20766f74696e67206e6f7420656e646564000000000000000000604482015260640161045d565b60035460ff16156109085760405162461bcd60e51b815260206004820152601860248201527f4172656e613a20616c72656164792066696e616c697a65640000000000000000604482015260640161045d565b6003805460ff191660011790556007545f8190036109b65761092861170b565b6001600160a01b037f0000000000000000000000000000000000000000000000000000000000000000165f908152600b60205260408120805490919061096f908490611b4d565b9091555050604080515f808252602082018190528183015290517f069cb9cf3066619f9a83be465993a22843ea7baba731ac97ac208899985dc0079181900360600190a150565b6109be611862565b6109c6611862565b5f5b83811015610b46575f600782815481106109e4576109e4611ad5565b5f91825260209091206002600490920201015484519091501580610a085750825181115b80610a2a5750825181148015610a2a57508351610a2790600190611b66565b82105b15610a6e57602080850180516040808801919091529185018051928601929092528551905283519052610a5e826001611b4d565b845280835f5b6020020152610b3d565b60208401511580610a825750602083015181115b80610aaa5750602083015181148015610aaa57506020840151610aa790600190611b66565b82105b15610adf576020808501516040808701919091529084015190840152610ad1826001611b4d565b602085015280836001610a64565b60408401511580610af35750604083015181115b80610b1b5750604083015181148015610b1b57506040840151610b1890600190611b66565b82105b15610b3d57610b2b826001611b4d565b84600260200201528083600260200201525b506001016109c8565b50610b546004836003611880565b505f610b5e61170b565b90505f80808581602002015115610b8b57612710610b7e61177086611b79565b610b889190611b90565b92505b602086015115610bb557612710610ba4610bb886611b79565b610bae9190611b90565b9150610bdb565b612710610bc4610bb886611b79565b610bce9190611b90565b610bd89084611b4d565b92505b604086015115610c0557612710610bf46103e886611b79565b610bfe9190611b90565b9050610c2b565b612710610c146103e886611b79565b610c1e9190611b90565b610c289084611b4d565b92505b855115610d2b5785515f90600790610c4590600190611b66565b81548110610c5557610c55611ad5565b5f91825260208083206004909202909101546001600160a01b0316808352600b90915260408220805491935086929091610c90908490611b4d565b90915550506040516326ec6b7160e01b81526001600160a01b037f000000000000000000000000000000000000000000000000000000000000000016906326ec6b7190610ce890849030905f90600190600401611c2d565b6020604051808303815f875af1158015610d04573d5f5f3e3d5ffd5b505050506040513d601f19601f82011682018060405250810190610d289190611c6c565b50505b602086015115610e31575f6007600188816020020151610d4b9190611b66565b81548110610d5b57610d5b611ad5565b5f91825260208083206004909202909101546001600160a01b0316808352600b90915260408220805491935085929091610d96908490611b4d565b90915550506040516326ec6b7160e01b81526001600160a01b037f000000000000000000000000000000000000000000000000000000000000000016906326ec6b7190610dee90849030905f90600290600401611c2d565b6020604051808303815f875af1158015610e0a573d5f5f3e3d5ffd5b505050506040513d601f19601f82011682018060405250810190610e2e9190611c6c565b50505b604086015115610f38575f600760018860026020020151610e529190611b66565b81548110610e6257610e62611ad5565b5f91825260208083206004909202909101546001600160a01b0316808352600b90915260408220805491935084929091610e9d908490611b4d565b90915550506040516326ec6b7160e01b81526001600160a01b037f000000000000000000000000000000000000000000000000000000000000000016906326ec6b7190610ef590849030905f90600390600401611c2d565b6020604051808303815f875af1158015610f11573d5f5f3e3d5ffd5b505050506040513d601f19601f82011682018060405250810190610f359190611c6c565b50505b5f81610f448486611b4d565b610f4e9190611b4d565b905080851115610faf57610f628186611b66565b6001600160a01b037f0000000000000000000000000000000000000000000000000000000000000000165f908152600b602052604081208054909190610fa9908490611b4d565b90915550505b86516020808901516040808b01518151948552928401919091528201527f069cb9cf3066619f9a83be465993a22843ea7baba731ac97ac208899985dc0079060600160405180910390a15050505050505050565b60606007805480602002602001604051908101604052809291908181526020015f905b82821015611111575f84815260209081902060408051608081019091526004850290910180546001600160a01b03168252600181018054929391929184019161106e90611b15565b80601f016020809104026020016040519081016040528092919081815260200182805461109a90611b15565b80156110e55780601f106110bc576101008083540402835291602001916110e5565b820191905f5260205f20905b8154815290600101906020018083116110c857829003601f168201915b505050505081526020016002820154815260200160038201548152505081526020019060010190611026565b50505050905090565b60048160038110611129575f80fd5b0154905081565b5f805461113c90611b15565b80601f016020809104026020016040519081016040528092919081815260200182805461116890611b15565b80156111b35780601f1061118a576101008083540402835291602001916111b3565b820191905f5260205f20905b81548152906001019060200180831161119657829003601f168201915b505050505081565b600154421061120c5760405162461bcd60e51b815260206004820152601d60248201527f4172656e613a207375626d697373696f6e20706861736520656e646564000000604482015260640161045d565b335f908152600a602052604090205460ff161561126b5760405162461bcd60e51b815260206004820152601860248201527f4172656e613a20616c7265616479207375626d69747465640000000000000000604482015260640161045d565b6007546064116112bd5760405162461bcd60e51b815260206004820152601d60248201527f4172656e613a207375626d697373696f6e206361702072656163686564000000604482015260640161045d565b8061130a5760405162461bcd60e51b815260206004820152601860248201527f4172656e613a20656d70747920636f6e74656e74207265660000000000000000604482015260640161045d565b6113426001600160a01b037f0000000000000000000000000000000000000000000000000000000000000000163330620186a0611695565b600780546040805160808101825233815281516020601f87018190048102820181019093528581529293929091808301919087908790819084018382808284375f92018290525093855250505060208083018290524260409093019290925283546001808201865594825290829020835160049092020180546001600160a01b0319166001600160a01b039092169190911781559082015191929091908201906113ec9082611ce2565b506040828101516002830155606090920151600390910155335f818152600a602052829020805460ff19166001179055905182907f72075524713934864c8a8ff2740c94cd50c441bf186d8ffd9b908ca8dbb4776d9061144f9087908790611d9d565b60405180910390a3505050565b611464611862565b6040805160608101918290529060049060039082845b81548152602001906001019080831161147a575050505050905090565b60035460ff166114e05760405162461bcd60e51b8152602060048201526014602482015273105c995b984e881b9bdd08199a5b985b1a5e995960621b604482015260640161045d565b335f9081526008602052604090205460ff166115345760405162461bcd60e51b81526020600482015260136024820152724172656e613a20646964206e6f7420766f746560681b604482015260640161045d565b335f908152600960205260409020546001016115925760405162461bcd60e51b815260206004820152601d60248201527f4172656e613a2072656261746520616c726561647920636c61696d6564000000604482015260640161045d565b6004545f036115d65760405162461bcd60e51b815260206004820152601060248201526f20b932b7309d103737903bb4b73732b960811b604482015260640161045d565b6004546115e590600190611b66565b335f908152600960205260409020541461163a5760405162461bcd60e51b815260206004820152601660248201527520b932b7309d103b37ba32b2103337b9103637b9b2b960511b604482015260640161045d565b335f9081526009602090815260408083205f199055600b9091528120805461c3509290611668908490611b4d565b9091555050565b5f60015442101561167f57505f90565b60025442101561168f5750600190565b50600290565b6116a3848484846001611793565b6116cb57604051635274afe760e01b81526001600160a01b038516600482015260240161045d565b50505050565b6116de8383836001611800565b61170657604051635274afe760e01b81526001600160a01b038416600482015260240161045d565b505050565b6040516370a0823160e01b81523060048201525f907f00000000000000000000000000000000000000000000000000000000000000006001600160a01b0316906370a0823190602401602060405180830381865afa15801561176f573d5f5f3e3d5ffd5b505050506040513d601f19601f8201168201806040525081019061085e9190611c6c565b6040516323b872dd60e01b5f8181526001600160a01b038781166004528616602452604485905291602083606481808c5af1925060015f511483166117ef5783831516156117e3573d5f823e3d81fd5b5f883b113d1516831692505b604052505f60605295945050505050565b60405163a9059cbb60e01b5f8181526001600160a01b038616600452602485905291602083604481808b5af1925060015f5114831661185657838315161561184a573d5f823e3d81fd5b5f873b113d1516831692505b60405250949350505050565b60405180606001604052806003906020820280368337509192915050565b82600381019282156118ae579160200282015b828111156118ae578251825591602001919060010190611893565b506118ba9291506118be565b5090565b5b808211156118ba575f81556001016118bf565b5f602082840312156118e2575f5ffd5b5035919050565b5f602082840312156118f9575f5ffd5b81356001600160a01b038116811461190f575f5ffd5b9392505050565b5f81518084528060208401602086015e5f602082860101526020601f19601f83011685010191505092915050565b60018060a01b0381511682525f60208201516080602085015261196a6080850182611916565b905060408301516040850152606083015160608501528091505092915050565b602081525f61190f6020830184611944565b5f602082016020835280845180835260408501915060408160051b8601019250602086015f5b828110156119f357603f198786030184526119de858351611944565b945060209384019391909101906001016119c2565b50929695505050505050565b602081525f61190f6020830184611916565b5f5f60208385031215611a22575f5ffd5b823567ffffffffffffffff811115611a38575f5ffd5b8301601f81018513611a48575f5ffd5b803567ffffffffffffffff811115611a5e575f5ffd5b856020828401011115611a6f575f5ffd5b6020919091019590945092505050565b6060810181835f5b6003811015611aa6578151835260209283019290910190600101611a87565b50505092915050565b6020810160038310611acf57634e487b7160e01b5f52602160045260245ffd5b91905290565b634e487b7160e01b5f52603260045260245ffd5b634e487b7160e01b5f52601160045260245ffd5b5f60018201611b0e57611b0e611ae9565b5060010190565b600181811c90821680611b2957607f821691505b602082108103611b4757634e487b7160e01b5f52602260045260245ffd5b50919050565b80820180821115611b6057611b60611ae9565b92915050565b81810381811115611b6057611b60611ae9565b8082028115828204841417611b6057611b60611ae9565b5f82611baa57634e487b7160e01b5f52601260045260245ffd5b500490565b5f8154611bbb81611b15565b808552600182168015611bd55760018114611bf157611aa6565b60ff1983166020870152602082151560051b8701019350611aa6565b845f5260205f205f5b83811015611c1c5781546020828a010152600182019150602081019050611bfa565b870160200194505050505092915050565b6001600160a01b038581168252841660208201526080604082018190525f90611c5890830185611baf565b905060ff8316606083015295945050505050565b5f60208284031215611c7c575f5ffd5b5051919050565b634e487b7160e01b5f52604160045260245ffd5b601f82111561170657805f5260205f20601f840160051c81016020851015611cbc5750805b601f840160051c820191505b81811015611cdb575f8155600101611cc8565b5050505050565b815167ffffffffffffffff811115611cfc57611cfc611c83565b611d1081611d0a8454611b15565b84611c97565b6020601f821160018114611d42575f8315611d2b5750848201515b5f19600385901b1c1916600184901b178455611cdb565b5f84815260208120601f198516915b82811015611d715787850151825560209485019460019092019101611d51565b5084821015611d8e57868401515f19600387901b60f8161c191681555b50505050600190811b01905550565b60208152816020820152818360408301375f818301604090810191909152601f909201601f1916010191905056fea2646970667358221220ca659c447ab86b5bfd3ec6aced10376ad9163d39d6d6eed4920360c8201e8f4064736f6c634300081c0033a2646970667358221220e427d289f59a5b8fb8db7f3f91acd6850636e158cf98966d0ff8d16131a14f2c64736f6c634300081c0033","linkReferences":{}},"methodIdentifiers":{"USDC()":"89a30271","createArena(string,uint256,uint256,uint256)":"5e56e7bb","getArenaCount()":"6269654e","getArenas()":"19b7b42e","getArenasByCreator(address)":"335a5502","reputationNFT()":"fa488649"},"id":44}