{"abi":[{"type":"constructor","inputs":[{"name":"initialOwner","type":"address","internalType":"address"}],"stateMutability":"nonpayable"},{"type":"function","name":"approve","inputs":[{"name":"to","type":"address","internalType":"address"},{"name":"tokenId","type":"uint256","internalType":"uint256"}],"outputs":[],"stateMutability":"nonpayable"},{"type":"function","name":"authorizeArena","inputs":[{"name":"arena","type":"address","internalType":"address"}],"outputs":[],"stateMutability":"nonpayable"},{"type":"function","name":"authorizedArenas","inputs":[{"name":"","type":"address","internalType":"address"}],"outputs":[{"name":"","type":"bool","internalType":"bool"}],"stateMutability":"view"},{"type":"function","name":"balanceOf","inputs":[{"name":"owner","type":"address","internalType":"address"}],"outputs":[{"name":"","type":"uint256","internalType":"uint256"}],"stateMutability":"view"},{"type":"function","name":"factory","inputs":[],"outputs":[{"name":"","type":"address","internalType":"address"}],"stateMutability":"view"},{"type":"function","name":"getApproved","inputs":[{"name":"tokenId","type":"uint256","internalType":"uint256"}],"outputs":[{"name":"","type":"address","internalType":"address"}],"stateMutability":"view"},{"type":"function","name":"getTokensByOwner","inputs":[{"name":"owner","type":"address","internalType":"address"}],"outputs":[{"name":"","type":"uint256[]","internalType":"uint256[]"}],"stateMutability":"view"},{"type":"function","name":"getWinRecords","inputs":[{"name":"owner","type":"address","internalType":"address"}],"outputs":[{"name":"records","type":"tuple[]","internalType":"struct ReputationNFT.WinRecord[]","components":[{"name":"arena","type":"address","internalType":"address"},{"name":"category","type":"string","internalType":"string"},{"name":"rank","type":"uint8","internalType":"uint8"},{"name":"timestamp","type":"uint256","internalType":"uint256"}]}],"stateMutability":"view"},{"type":"function","name":"isApprovedForAll","inputs":[{"name":"owner","type":"address","internalType":"address"},{"name":"operator","type":"address","internalType":"address"}],"outputs":[{"name":"","type":"bool","internalType":"bool"}],"stateMutability":"view"},{"type":"function","name":"mint","inputs":[{"name":"to","type":"address","internalType":"address"},{"name":"arena","type":"address","internalType":"address"},{"name":"category","type":"string","internalType":"string"},{"name":"rank","type":"uint8","internalType":"uint8"}],"outputs":[{"name":"tokenId","type":"uint256","internalType":"uint256"}],"stateMutability":"nonpayable"},{"type":"function","name":"name","inputs":[],"outputs":[{"name":"","type":"string","internalType":"string"}],"stateMutability":"view"},{"type":"function","name":"owner","inputs":[],"outputs":[{"name":"","type":"address","internalType":"address"}],"stateMutability":"view"},{"type":"function","name":"ownerOf","inputs":[{"name":"tokenId","type":"uint256","internalType":"uint256"}],"outputs":[{"name":"","type":"address","internalType":"address"}],"stateMutability":"view"},{"type":"function","name":"renounceOwnership","inputs":[],"outputs":[],"stateMutability":"nonpayable"},{"type":"function","name":"safeTransferFrom","inputs":[{"name":"from","type":"address","internalType":"address"},{"name":"to","type":"address","internalType":"address"},{"name":"tokenId","type":"uint256","internalType":"uint256"}],"outputs":[],"stateMutability":"nonpayable"},{"type":"function","name":"safeTransferFrom","inputs":[{"name":"from","type":"address","internalType":"address"},{"name":"to","type":"address","internalType":"address"},{"name":"tokenId","type":"uint256","internalType":"uint256"},{"name":"data","type":"bytes","internalType":"bytes"}],"outputs":[],"stateMutability":"nonpayable"},{"type":"function","name":"setApprovalForAll","inputs":[{"name":"operator","type":"address","internalType":"address"},{"name":"approved","type":"bool","internalType":"bool"}],"outputs":[],"stateMutability":"nonpayable"},{"type":"function","name":"setFactory","inputs":[{"name":"_factory","type":"address","internalType":"address"}],"outputs":[],"stateMutability":"nonpayable"},{"type":"function","name":"supportsInterface","inputs":[{"name":"interfaceId","type":"bytes4","internalType":"bytes4"}],"outputs":[{"name":"","type":"bool","internalType":"bool"}],"stateMutability":"view"},{"type":"function","name":"symbol","inputs":[],"outputs":[{"name":"","type":"string","internalType":"string"}],"stateMutability":"view"},{"type":"function","name":"tokenURI","inputs":[{"name":"tokenId","type":"uint256","internalType":"uint256"}],"outputs":[{"name":"","type":"string","internalType":"string"}],"stateMutability":"view"},{"type":"function","name":"transferFrom","inputs":[{"name":"from","type":"address","internalType":"address"},{"name":"to","type":"address","internalType":"address"},{"name":"tokenId","type":"uint256","internalType":"uint256"}],"outputs":[],"stateMutability":"nonpayable"},{"type":"function","name":"transferOwnership","inputs":[{"name":"newOwner","type":"address","internalType":"address"}],"outputs":[],"stateMutability":"nonpayable"},{"type":"function","name":"winRecords","inputs":[{"name":"","type":"uint256","internalType":"uint256"}],"outputs":[{"name":"arena","type":"address","internalType":"address"},{"name":"category","type":"string","internalType":"string"},{"name":"rank","type":"uint8","internalType":"uint8"},{"name":"timestamp","type":"uint256","internalType":"uint256"}],"stateMutability":"view"},{"type":"event","name":"Approval","inputs":[{"name":"owner","type":"address","indexed":true,"internalType":"address"},{"name":"approved","type":"address","indexed":true,"internalType":"address"},{"name":"tokenId","type":"uint256","indexed":true,"internalType":"uint256"}],"anonymous":false},{"type":"event","name":"ApprovalForAll","inputs":[{"name":"owner","type":"address","indexed":true,"internalType":"address"},{"name":"operator","type":"address","indexed":true,"internalType":"address"},{"name":"approved","type":"bool","indexed":false,"internalType":"bool"}],"anonymous":false},{"type":"event","name":"ArenaAuthorized","inputs":[{"name":"arena","type":"address","indexed":true,"internalType":"address"}],"anonymous":false},{"type":"event","name":"OwnershipTransferred","inputs":[{"name":"previousOwner","type":"address","indexed":true,"internalType":"address"},{"name":"newOwner","type":"address","indexed":true,"internalType":"address"}],"anonymous":false},{"type":"event","name":"Transfer","inputs":[{"name":"from","type":"address","indexed":true,"internalType":"address"},{"name":"to","type":"address","indexed":true,"internalType":"address"},{"name":"tokenId","type":"uint256","indexed":true,"internalType":"uint256"}],"anonymous":false},{"type":"event","name":"WinnerMinted","inputs":[{"name":"to","type":"address","indexed":true,"internalType":"address"},{"name":"tokenId","type":"uint256","indexed":true,"internalType":"uint256"},{"name":"arena","type":"address","indexed":false,"internalType":"address"},{"name":"rank","type":"uint8","indexed":false,"internalType":"uint8"}],"anonymous":false},{"type":"error","name":"ERC721IncorrectOwner","inputs":[{"name":"sender","type":"address","internalType":"address"},{"name":"tokenId","type":"uint256","internalType":"uint256"},{"name":"owner","type":"address","internalType":"address"}]},{"type":"error","name":"ERC721InsufficientApproval","inputs":[{"name":"operator","type":"address","internalType":"address"},{"name":"tokenId","type":"uint256","internalType":"uint256"}]},{"type":"error","name":"ERC721InvalidApprover","inputs":[{"name":"approver","type":"address","internalType":"address"}]},{"type":"error","name":"ERC721InvalidOperator","inputs":[{"name":"operator","type":"address","internalType":"address"}]},{"type":"error","name":"ERC721InvalidOwner","inputs":[{"name":"owner","type":"address","internalType":"address"}]},{"type":"error","name":"ERC721InvalidReceiver","inputs":[{"name":"receiver","type":"address","internalType":"address"}]},{"type":"error","name":"ERC721InvalidSender","inputs":[{"name":"sender","type":"address","internalType":"address"}]},{"type":"error","name":"ERC721NonexistentToken","inputs":[{"name":"tokenId","type":"uint256","internalType":"uint256"}]},{"type":"error","name":"OwnableInvalidOwner","inputs":[{"name":"owner","type":"address","internalType":"address"}]},{"type":"error","name":"OwnableUnauthorizedAccount","inputs":[{"name":"account","type":"address","internalType":"address"}]}],"bytecode":{"object":"0x608060405234801561000f575f5ffd5b506040516122d03803806122d083398101604081905261002e9161012e565b806040518060400160405280601381526020017f436f6c697365756d2052657075746174696f6e00000000000000000000000000815250604051806040016040528060048152602001630435245560e41b815250815f908161009091906101f3565b50600161009d82826101f3565b5050506001600160a01b0381166100cd57604051631e4fbdf760e01b81525f600482015260240160405180910390fd5b6100d6816100dd565b50506102ad565b600680546001600160a01b038381166001600160a01b0319831681179093556040519116919082907f8be0079c531659141344cd1fd0a4f28419497f9722a3daafe3b4186f6b6457e0905f90a35050565b5f6020828403121561013e575f5ffd5b81516001600160a01b0381168114610154575f5ffd5b9392505050565b634e487b7160e01b5f52604160045260245ffd5b600181811c9082168061018357607f821691505b6020821081036101a157634e487b7160e01b5f52602260045260245ffd5b50919050565b601f8211156101ee57805f5260205f20601f840160051c810160208510156101cc5750805b601f840160051c820191505b818110156101eb575f81556001016101d8565b50505b505050565b81516001600160401b0381111561020c5761020c61015b565b6102208161021a845461016f565b846101a7565b6020601f821160018114610252575f831561023b5750848201515b5f19600385901b1c1916600184901b1784556101eb565b5f84815260208120601f198516915b828110156102815787850151825560209485019460019092019101610261565b508482101561029e57868401515f19600387901b60f8161c191681555b50505050600190811b01905550565b612016806102ba5f395ff3fe608060405234801561000f575f5ffd5b5060043610610153575f3560e01c8063715018a6116100bf578063b88d4fde11610079578063b88d4fde146102fd578063c2d7d61514610310578063c45a015514610333578063c87b56dd14610346578063e985e9c514610359578063f2fde38b1461036c575f5ffd5b8063715018a6146102875780638da5cb5b1461028f57806392e8dafc146102a057806395d89b41146102c2578063a22cb465146102ca578063a6744e2b146102dd575f5ffd5b806340398d671161011057806340398d671461020857806342842e0e146102285780635a7bc6a51461023b5780635bb478081461024e5780636352211e1461026157806370a0823114610274575f5ffd5b806301ffc9a71461015757806306fdde031461017f578063081812fc14610194578063095ea7b3146101bf57806323b872dd146101d457806326ec6b71146101e7575b5f5ffd5b61016a6101653660046116cc565b61037f565b60405190151581526020015b60405180910390f35b6101876103d0565b6040516101769190611715565b6101a76101a2366004611727565b61045f565b6040516001600160a01b039091168152602001610176565b6101d26101cd366004611759565b610486565b005b6101d26101e2366004611781565b610495565b6101fa6101f53660046117bb565b610523565b604051908152602001610176565b61021b610216366004611863565b6107b8565b604051610176919061187c565b6101d2610236366004611781565b610821565b6101d2610249366004611863565b610840565b6101d261025c366004611863565b610947565b6101a761026f366004611727565b610a2b565b6101fa610282366004611863565b610a35565b6101d2610a7a565b6006546001600160a01b03166101a7565b61016a6102ae366004611863565b60086020525f908152604090205460ff1681565b610187610a8d565b6101d26102d83660046118be565b610a9c565b6102f06102eb366004611863565b610aa7565b60405161017691906118f7565b6101d261030b3660046119a7565b610c88565b61032361031e366004611727565b610ca0565b6040516101769493929190611a84565b6007546101a7906001600160a01b031681565b610187610354366004611727565b610d5c565b61016a610367366004611abd565b610fcd565b6101d261037a366004611863565b610ffa565b5f6001600160e01b031982166380ac58cd60e01b14806103af57506001600160e01b03198216635b5e139f60e01b145b806103ca57506301ffc9a760e01b6001600160e01b03198316145b92915050565b60605f80546103de90611aee565b80601f016020809104026020016040519081016040528092919081815260200182805461040a90611aee565b80156104555780601f1061042c57610100808354040283529160200191610455565b820191905f5260205f20905b81548152906001019060200180831161043857829003601f168201915b5050505050905090565b5f61046982611037565b505f828152600460205260409020546001600160a01b03166103ca565b61049182823361106f565b5050565b6001600160a01b0382166104c357604051633250574960e11b81525f60048201526024015b60405180910390fd5b5f6104cf83833361107c565b9050836001600160a01b0316816001600160a01b03161461051d576040516364283d7b60e01b81526001600160a01b03808616600483015260248201849052821660448201526064016104ba565b50505050565b335f9081526008602052604081205460ff166105975760405162461bcd60e51b815260206004820152602d60248201527f52657075746174696f6e4e46543a2063616c6c6572206973206e6f742061757460448201526c686f72697a6564206172656e6160981b60648201526084016104ba565b6001600160a01b0386166105f95760405162461bcd60e51b815260206004820152602360248201527f52657075746174696f6e4e46543a206d696e7420746f207a65726f206164647260448201526265737360e81b60648201526084016104ba565b60018260ff1610158015610611575060038260ff1611155b61065d5760405162461bcd60e51b815260206004820152601b60248201527f52657075746174696f6e4e46543a20696e76616c69642072616e6b000000000060448201526064016104ba565b60098054905f61066c83611b26565b91905055905061067c86826110fb565b6040518060800160405280866001600160a01b0316815260200185858080601f0160208091040260200160405190810160405280939291908181526020018383808284375f92018290525093855250505060ff851660208084019190915242604093840152848252600a8152919020825181546001600160a01b0319166001600160a01b0390911617815590820151600182019061071a9082611b8e565b5060408281015160028301805460ff191660ff9283161790556060909301516003909201919091556001600160a01b038881165f818152600b60209081528482208054600181018255908352918190209091018690558351928a168352938616938201939093528392917f36bec97f9312057e2926ae905dbd047b5cc9c23c7eba231286f15ff4ae06c003910160405180910390a395945050505050565b6001600160a01b0381165f908152600b602090815260409182902080548351818402810184019094528084526060939283018282801561081557602002820191905f5260205f20905b815481526020019060010190808311610801575b50505050509050919050565b61083b83838360405180602001604052805f815250610c88565b505050565b6007546001600160a01b031633146108a65760405162461bcd60e51b8152602060048201526024808201527f52657075746174696f6e4e46543a2063616c6c6572206973206e6f7420666163604482015263746f727960e01b60648201526084016104ba565b6001600160a01b0381166108fc5760405162461bcd60e51b815260206004820152601960248201527f52657075746174696f6e4e46543a207a65726f206172656e610000000000000060448201526064016104ba565b6001600160a01b0381165f81815260086020526040808220805460ff19166001179055517f94e82d3750531d0b36e04faa001e7741a6de0444a1460dd4724c79afa100acc39190a250565b61094f611114565b6007546001600160a01b0316156109b35760405162461bcd60e51b815260206004820152602260248201527f52657075746174696f6e4e46543a20666163746f727920616c72656164792073604482015261195d60f21b60648201526084016104ba565b6001600160a01b038116610a095760405162461bcd60e51b815260206004820152601b60248201527f52657075746174696f6e4e46543a207a65726f2061646472657373000000000060448201526064016104ba565b600780546001600160a01b0319166001600160a01b0392909216919091179055565b5f6103ca82611037565b5f6001600160a01b038216610a5f576040516322718ad960e21b81525f60048201526024016104ba565b506001600160a01b03165f9081526003602052604090205490565b610a82611114565b610a8b5f611141565b565b6060600180546103de90611aee565b610491338383611192565b6001600160a01b0381165f908152600b6020526040902080546060919067ffffffffffffffff811115610adc57610adc611993565b604051908082528060200260200182016040528015610b4157816020015b610b2e60405180608001604052805f6001600160a01b03168152602001606081526020015f60ff1681526020015f81525090565b815260200190600190039081610afa5790505b5091505f5b8154811015610c8157600a5f838381548110610b6457610b64611c49565b905f5260205f20015481526020019081526020015f206040518060800160405290815f82015f9054906101000a90046001600160a01b03166001600160a01b03166001600160a01b03168152602001600182018054610bc290611aee565b80601f0160208091040260200160405190810160405280929190818152602001828054610bee90611aee565b8015610c395780601f10610c1057610100808354040283529160200191610c39565b820191905f5260205f20905b815481529060010190602001808311610c1c57829003601f168201915b5050509183525050600282015460ff1660208201526003909101546040909101528351849083908110610c6e57610c6e611c49565b6020908102919091010152600101610b46565b5050919050565b610c93848484610495565b61051d3385858585611259565b600a6020525f9081526040902080546001820180546001600160a01b039092169291610ccb90611aee565b80601f0160208091040260200160405190810160405280929190818152602001828054610cf790611aee565b8015610d425780601f10610d1957610100808354040283529160200191610d42565b820191905f5260205f20905b815481529060010190602001808311610d2557829003601f168201915b505050506002830154600390930154919260ff1691905084565b6060610d6782611037565b505f828152600a6020908152604080832081516080810190925280546001600160a01b031682526001810180549293919291840191610da590611aee565b80601f0160208091040260200160405190810160405280929190818152602001828054610dd190611aee565b8015610e1c5780601f10610df357610100808354040283529160200191610e1c565b820191905f5260205f20905b815481529060010190602001808311610dff57829003601f168201915b5050509183525050600282015460ff90811660208301526003909201546040918201528201519192505f9116600114610ea057816040015160ff16600214610e7f57604051806040016040528060038152602001620cdc9960ea1b815250610ebd565b604051806040016040528060038152602001620c9b9960ea1b815250610ebd565b604051806040016040528060038152602001620c5cdd60ea1b8152505b90505f826040015160ff16600114610f2857826040015160ff16600214610f03576040518060400160405280600781526020016611a1a21ba3199960c91b815250610f49565b604051806040016040528060078152602001660234330433043360cc1b815250610f49565b604051806040016040528060078152602001660234646443730360cc1b8152505b90505f81838560200151604051602001610f6593929190611c74565b60405160208183030381529060405290505f83856020015183604051602001610f9093929190611e89565b604051602081830303815290604052905080604051602001610fb29190611f58565b60405160208183030381529060405295505050505050919050565b6001600160a01b039182165f90815260056020908152604080832093909416825291909152205460ff1690565b611002611114565b6001600160a01b03811661102b57604051631e4fbdf760e01b81525f60048201526024016104ba565b61103481611141565b50565b5f818152600260205260408120546001600160a01b0316806103ca57604051637e27328960e01b8152600481018490526024016104ba565b61083b8383836001611381565b5f611088848484611485565b90506001600160a01b038116156110f45760405162461bcd60e51b815260206004820152602a60248201527f52657075746174696f6e4e46543a20736f756c626f756e642c206e6f6e2d7472604482015269616e7366657261626c6560b01b60648201526084016104ba565b9392505050565b610491828260405180602001604052805f815250611577565b6006546001600160a01b03163314610a8b5760405163118cdaa760e01b81523360048201526024016104ba565b600680546001600160a01b038381166001600160a01b0319831681179093556040519116919082907f8be0079c531659141344cd1fd0a4f28419497f9722a3daafe3b4186f6b6457e0905f90a35050565b6001600160a01b0383166111bb5760405163a9fbf51f60e01b81525f60048201526024016104ba565b6001600160a01b0382166111ed57604051630b61174360e31b81526001600160a01b03831660048201526024016104ba565b6001600160a01b038381165f81815260056020908152604080832094871680845294825291829020805460ff191686151590811790915591519182527f17307eab39ab6107e8899845ad3d59bd9653f200f220920489ca2b5937696c31910160405180910390a3505050565b6001600160a01b0383163b1561137a57604051630a85bd0160e11b81526001600160a01b0384169063150b7a029061129b908890889087908790600401611f89565b6020604051808303815f875af19250505080156112d5575060408051601f3d908101601f191682019092526112d291810190611fc5565b60015b61133c573d808015611302576040519150601f19603f3d011682016040523d82523d5f602084013e611307565b606091505b5080515f0361133457604051633250574960e11b81526001600160a01b03851660048201526024016104ba565b805160208201fd5b6001600160e01b03198116630a85bd0160e11b1461137857604051633250574960e11b81526001600160a01b03851660048201526024016104ba565b505b5050505050565b808061139557506001600160a01b03821615155b15611456575f6113a484611037565b90506001600160a01b038316158015906113d05750826001600160a01b0316816001600160a01b031614155b80156113e357506113e18184610fcd565b155b1561140c5760405163a9fbf51f60e01b81526001600160a01b03841660048201526024016104ba565b81156114545783856001600160a01b0316826001600160a01b03167f8c5be1e5ebec7d5bd14f71427d1e84f3dd0314c0f7b2291e5b200ac8c7c3b92560405160405180910390a45b505b50505f90815260046020526040902080546001600160a01b0319166001600160a01b0392909216919091179055565b5f828152600260205260408120546001600160a01b03908116908316156114b1576114b181848661158e565b6001600160a01b038116156114eb576114cc5f855f5f611381565b6001600160a01b0381165f90815260036020526040902080545f190190555b6001600160a01b03851615611519576001600160a01b0385165f908152600360205260409020805460010190555b5f8481526002602052604080822080546001600160a01b0319166001600160a01b0389811691821790925591518793918516917fddf252ad1be2c89b69c2b068fc378daa952ba7f163c4a11628f55a4df523b3ef91a4949350505050565b61158183836115f2565b61083b335f858585611259565b611599838383611653565b61083b576001600160a01b0383166115c757604051637e27328960e01b8152600481018290526024016104ba565b60405163177e802f60e01b81526001600160a01b0383166004820152602481018290526044016104ba565b6001600160a01b03821661161b57604051633250574960e11b81525f60048201526024016104ba565b5f61162783835f61107c565b90506001600160a01b0381161561083b576040516339e3563760e11b81525f60048201526024016104ba565b5f6001600160a01b038316158015906116af5750826001600160a01b0316846001600160a01b0316148061168c575061168c8484610fcd565b806116af57505f828152600460205260409020546001600160a01b038481169116145b949350505050565b6001600160e01b031981168114611034575f5ffd5b5f602082840312156116dc575f5ffd5b81356110f4816116b7565b5f81518084528060208401602086015e5f602082860101526020601f19601f83011685010191505092915050565b602081525f6110f460208301846116e7565b5f60208284031215611737575f5ffd5b5035919050565b80356001600160a01b0381168114611754575f5ffd5b919050565b5f5f6040838503121561176a575f5ffd5b6117738361173e565b946020939093013593505050565b5f5f5f60608486031215611793575f5ffd5b61179c8461173e565b92506117aa6020850161173e565b929592945050506040919091013590565b5f5f5f5f5f608086880312156117cf575f5ffd5b6117d88661173e565b94506117e66020870161173e565b9350604086013567ffffffffffffffff811115611801575f5ffd5b8601601f81018813611811575f5ffd5b803567ffffffffffffffff811115611827575f5ffd5b886020828401011115611838575f5ffd5b60209190910193509150606086013560ff81168114611855575f5ffd5b809150509295509295909350565b5f60208284031215611873575f5ffd5b6110f48261173e565b602080825282518282018190525f918401906040840190835b818110156118b3578351835260209384019390920191600101611895565b509095945050505050565b5f5f604083850312156118cf575f5ffd5b6118d88361173e565b9150602083013580151581146118ec575f5ffd5b809150509250929050565b5f602082016020835280845180835260408501915060408160051b8601019250602086015f5b8281101561198757868503603f19018452815180516001600160a01b03168652602080820151608091880182905290611958908801826116e7565b60408381015160ff1690890152606092830151929097019190915250602093840193919091019060010161191d565b50929695505050505050565b634e487b7160e01b5f52604160045260245ffd5b5f5f5f5f608085870312156119ba575f5ffd5b6119c38561173e565b93506119d16020860161173e565b925060408501359150606085013567ffffffffffffffff8111156119f3575f5ffd5b8501601f81018713611a03575f5ffd5b803567ffffffffffffffff811115611a1d57611a1d611993565b604051601f8201601f19908116603f0116810167ffffffffffffffff81118282101715611a4c57611a4c611993565b604052818152828201602001891015611a63575f5ffd5b816020840160208301375f6020838301015280935050505092959194509250565b6001600160a01b03851681526080602082018190525f90611aa7908301866116e7565b60ff949094166040830152506060015292915050565b5f5f60408385031215611ace575f5ffd5b611ad78361173e565b9150611ae56020840161173e565b90509250929050565b600181811c90821680611b0257607f821691505b602082108103611b2057634e487b7160e01b5f52602260045260245ffd5b50919050565b5f60018201611b4357634e487b7160e01b5f52601160045260245ffd5b5060010190565b601f82111561083b57805f5260205f20601f840160051c81016020851015611b6f5750805b601f840160051c820191505b8181101561137a575f8155600101611b7b565b815167ffffffffffffffff811115611ba857611ba8611993565b611bbc81611bb68454611aee565b84611b4a565b6020601f821160018114611bee575f8315611bd75750848201515b5f19600385901b1c1916600184901b17845561137a565b5f84815260208120601f198516915b82811015611c1d5787850151825560209485019460019092019101611bfd565b5084821015611c3a57868401515f19600387901b60f8161c191681555b50505050600190811b01905550565b634e487b7160e01b5f52603260045260245ffd5b5f81518060208401855e5f93019283525090919050565b7f3c73766720786d6c6e733d22687474703a2f2f7777772e77332e6f72672f323081527f30302f737667222077696474683d2233303022206865696768743d22333030226020820152601f60f91b60408201527f3c726563742077696474683d2233303022206865696768743d2233303022206660418201526e34b6361e911198309830983091179f60891b60618201527f3c7465787420783d223135302220793d2238302220666f6e742d73697a653d2260708201527f34382220746578742d616e63686f723d226d6964646c65222066696c6c3d220060908201525f611d5f60af830186611c5d565b61111f60f11b8152611d746002820186611c5d565b661e17ba32bc3a1f60c91b815290507f3c7465787420783d223135302220793d223135302220666f6e742d73697a653d60078201527f2231342220746578742d616e63686f723d226d6964646c65222066696c6c3d2260278201526811b33333333333111f60b91b6047820152611dee6050820185611c5d565b661e17ba32bc3a1f60c91b81527f3c7465787420783d223135302220793d223230302220666f6e742d73697a653d60078201527f2231312220746578742d616e63686f723d226d6964646c65222066696c6c3d2260278201527f23383838383838223e436f6c697365756d3c2f746578743e00000000000000006047820152651e17b9bb339f60d11b605f8201526065019695505050505050565b7103d913730b6b2911d1121b7b634b9b2bab6960751b81525f611eaf6012830186611c5d565b6201016960ed1b8152611ec56003820186611c5d565b90507f222c226465736372697074696f6e223a22536f756c626f756e642077696e206281527f616467652066726f6d20436f6c697365756d206172656e612e222c22696d616760208201527f65223a22646174613a696d6167652f7376672b786d6c3b757466382c000000006040820152611f43605c820185611c5d565b61227d60f01b81526002019695505050505050565b7f646174613a6170706c69636174696f6e2f6a736f6e3b757466382c000000000081525f6110f4601b830184611c5d565b6001600160a01b03858116825284166020820152604081018390526080606082018190525f90611fbb908301846116e7565b9695505050505050565b5f60208284031215611fd5575f5ffd5b81516110f4816116b756fea2646970667358221220b5077eb9c3c27fbac303b23a5b5cd29ffabb07df4487c1d7ed5a1f637ef2025a64736f6c634300081c0033","linkReferences":{}},"methodIdentifiers":{"approve(address,uint256)":"095ea7b3","authorizeArena(address)":"5a7bc6a5","authorizedArenas(address)":"92e8dafc","balanceOf(address)":"70a08231","factory()":"c45a0155","getApproved(uint256)":"081812fc","getTokensByOwner(address)":"40398d67","getWinRecords(address)":"a6744e2b","isApprovedForAll(address,address)":"e985e9c5","mint(address,address,string,uint8)":"26ec6b71","name()":"06fdde03","owner()":"8da5cb5b","ownerOf(uint256)":"6352211e","renounceOwnership()":"715018a6","safeTransferFrom(address,address,uint256)":"42842e0e","safeTransferFrom(address,address,uint256,bytes)":"b88d4fde","setApprovalForAll(address,bool)":"a22cb465","setFactory(address)":"5bb47808","supportsInterface(bytes4)":"01ffc9a7","symbol()":"95d89b41","tokenURI(uint256)":"c87b56dd","transferFrom(address,address,uint256)":"23b872dd","transferOwnership(address)":"f2fde38b","winRecords(uint256)":"c2d7d615"},"id":45}